:020000040800F2
:10000000100E002439030008A3390008C337000884
:10001000A1390008A3040008753F00080000000093
:10002000000000000000000000000000A53C0008E7
:10003000A504000800000000A5390008A73C00083E
:100040005303000853030008530300085303000838
:100050005303000853030008530300085303000828
:100060005303000853030008530300085303000818
:100070005303000853030008530300085303000808
:10008000530300085303000853030008D904000871
:1000900053030008530300085303000853030008E8
:1000A000530300082D3E00085303000853030008C3
:1000B00053030008530300085303000853030008C8
:1000C00053030008530300085303000853030008B8
:1000D00053030008530300085303000853030008A8
:1000E00053030008530300080000000053030008F6
:1000F0005303000853030008530300085303000888
:100100005303000853030008530300085303000877
:100110005303000853030008530300085303000867
:100120005303000853030008530300085303000857
:100130005303000853030008530300085303000847
:1001400000000000000000000000000000000000AF
:100150005303000853030008530300085303000827
:100160005303000853030008530300085303000817
:100170005303000853030008530300085303000807
:1001800053030008530300085303000853030008F7
:1001900053030008530300085303000853030008E7
:1001A00053030008530300085303000853030008D7
:1001B00053030008530300085303000853030008C7
:1001C00053030008530300085303000853030008B7
:1001D00053030008530300085303000853030008A7
:1001E0005303000853030008530300085303000897
:1001F0005303000853030008530300085303000887
:100200005303000853030008530300085303000876
:100210005303000853030008530300085303000866
:1002200053030008530300085303000800000000B4
:1002300053030008530300080000000053030008A4
:100240005303000853030008530300085303000836
:100250005303000853030008530300085303000826
:100260005303000853030008530300085303000816
:100270005303000853030008530300080000000064
:100280005303000853030008530300080000000054
:10029000000000005303000800F002F800F03CF8F2
:1002A0000AA090E8000C82448344AAF10107DA45D1
:1002B00001D100F031F8AFF2090EBAE80F0013F0E7
:1002C000010F18BFFB1A43F001031847C43D00009B
:1002D000E43D0000103A24BF78C878C1FAD852072C
:1002E00024BF30C830C144BF04680C6070470000B0
:1002F0000023002400250026103A28BF78C1FBD82F
:10030000520728BF30C148BF0B6070471FB503F0CC
:1003100083FE1FBD10B510BD00F08AF81146FFF72F
:10032000F5FF03F029FE00F0A8F803B4FFF7F2FF91
:1003300003BC00F0AFF800000948804709480047B7
:10034000FEE7FEE7FEE7FEE7FEE7FEE7FEE7FEE785
:10035000FEE7FEE704480549054A064B70470000E2
:10036000513D00089902000810020024100E0024DC
:10037000100600241006002410B5203AC0F00B80AF
:10038000B1E81850203AA0E81850B1E81850A0E899
:100390001850BFF4F5AF5FEA027C24BFB1E81850F3
:1003A000A0E8185044BF18C918C0BDE810405FEA63
:1003B000827C24BF51F8043B40F8043B08BF7047DF
:1003C000D20728BF31F8023B48BF11F8012B28BFE4
:1003D00020F8023B48BF00F8012B70474FF00002A5
:1003E00000B5134694469646203922BFA0E80C502B
:1003F000A0E80C50B1F12001BFF4F7AF090728BF06
:10040000A0E80C5048BF0CC05DF804EB890028BF81
:1004100040F8042B08BF704748BF20F8022B11F0AA
:10042000804F18BF00F8012B704770477047704726
:10043000754600F02BF8AE4605006946534620F09D
:100440000700854618B020B5FFF784FFBDE82040BF
:100450004FF000064FF000074FF000084FF0000B80
:1004600021F00701AC46ACE8C009ACE8C009ACE833
:10047000C009ACE8C0098D46704710B50446AFF31B
:1004800000802046BDE81040FFF74FBF004870478E
:10049000B001002401491820ABBEFEE7260002008F
:1004A0007047FEE7704772B6FEE7000000B589B0FE
:1004B00001AB002002210090012283E80700049094
:1004C00069460590034800F08EFA002800D001200C
:1004D00009B000BDC4000024014800F02DBC00009C
:1004E000C400002430B589B04FF080450090002052
:1004F000AC120195CDE90202CDE904046BB16200B2
:10050000069207900A4608906946054800F030FABE
:10051000002800D0012009B030BD0690F1E70000AE
:10052000C4000024416B0268D2F884306FF38F035B
:1005300043EA8103C2F884300268D2F88430B0F80C
:1005400038C023F47F0343EA0C43C2F88430826B43
:1005500011440268D2F888306FF38F0343EA8103B5
:10056000C2F888300268D2F88830B0F83CC023F472
:10057000FE0343EA0C43C2F88830C26B01EB420130
:100580000268D2F8A0306FF38F0343EA8103C2F808
:10059000A0300268D2F8A030B0F840C023F4FE03C7
:1005A00043EA0C43C2F8A030436C026C02FB031117
:1005B0000268D2F8B0306FF38F0343EA8103C2F8C8
:1005C000B0300268D2F8B030B0F848C023F4FE036F
:1005D00043EA0C43C2F8B030C36C826C02FB0311D7
:1005E0000268D2F8AC306FF38F0343EA8103C2F89C
:1005F000AC30436D026D02FB03110268D2F8F0309B
:100600006FF38F0343EA8103C2F8F0300268D2F837
:10061000F030B0F858C023F47C1343EA0C43C2F81E
:10062000F030826D01EB42020168D1F8C0306FF307
:100630008F0343EA8202C1F8C0200168D1F8C020CC
:10064000B0F85C3022F47C1242EA0342C1F8C020C8
:100650000168D1F8C02090F8603022F07C5242EA64
:100660000362C1F8C020416B294A02EB8101C166D7
:10067000826B01EB82020267C36B02EBC30242672B
:10068000D0F844C0036C03FB0CF302EB83028267D7
:10069000D0F84CC0836C03FB0CF302EB8302C267FF
:1006A000D0F854C0036D03FB0CF302EB8302C0F8D7
:1006B0008020836D02EBC303C0F88430D0F85CC0A7
:1006C000826E0CFB02FC03EB8C03C0F88830D0F880
:1006D00060C00CFB02F203EB8202C0F890200D4BCD
:1006E0009A420AD9D0F89C1041F02001C0F89C1021
:1006F000032180F89810012070478A4206D9002211
:100700000A60091DD0F890308B42F9D8002070475C
:1007100000AC0040FCD3004070B4D1F808C00C69B4
:100720004D6844EA0C04D1F800C0002D43D04CF0D1
:10073000804C44EA0C0C8D69CC6991F820602C4304
:100740004D6945EA06652C43CD682C43D0F88450AA
:10075000806E00FB03F005EB8000C0F800C0001DB8
:100760000460031D0020D1F80CC0144C04EB1C4C99
:100770009CF800C0BCF1000F1BD902EB000C155C0B
:100780009CF8036045EA06659CF802609CF801C08D
:10079000360446EA0C2C45EA0C0CC3F800C01B1DBD
:1007A000001DD1F80CC004EB1C4C9CF800C0844523
:1007B000E3D870BC704744EA8C4CBCE73440000876
:1007C00030B4054600201F2311F0010F1DD04FF05B
:1007D000010C5B1E05D303F01F040CFA04F40C4259
:1007E000F7D032B1082A1AD0102A14D0182A0ED005
:1007F0000120002807D12B68596129688B6823F0F4
:1008000018031A438A6030BC70470120F1E7072BB8
:10081000EFD30120EDE7082BEBD30120E9E7102B04
:10082000E7D30120E5E7000010B50446002C02D014
:10083000607F10B106E0012010BD00202077204627
:1008400000F032F802206077207938B1E268204663
:10085000A168FFF7B5FF48B1012010BD216811481C
:1008600048612068816821F0180181606079A0B139
:1008700021682069086120688168626921F060014F
:100880001143816020688168A26921F080011143D1
:10089000816001206077002010BD21684FF0FF309B
:1008A0000861E8E7B71DC10408B500680649884239
:1008B00008D10648016841F400210160006800F495
:1008C0000020009008BD0000004C0258E04402588F
:1008D00090F89830012B09D0022B07D0D0F89C104B
:1008E00041F00201C0F89C10012070470368D3F862
:1008F00058C01CEA010F06D1D3F85CC04CF0010CC3
:10090000C3F85CC008E0D3F858C031EA0C0C26D01C
:100910004FF0030CC3F85CC011F4007F06D00368ED
:10092000D3F8E0C04CEA020CC3F8E0C011F4806FC9
:1009300006D00368D3F8E4C04CEA0202C3F8E4200E
:100940000068426D21F4401323F040431A4342658E
:100950000648026842EA9171016000207047D3F8AE
:100960005CC04CF0020CC3F85CC0D5E714A8004092
:1009700070B5044694F89800022807D0D4F89C007B
:1009800040F00800C4F89C00012070BD2068D0F839
:10099000C03013F07C5F0CD0D0F8C43013F4001FCB
:1009A0000FD0D4F89C0040F40070C4F89C000120E3
:1009B00070BDD4F89C0040F02000C4F89C000120D9
:1009C00070BDD0F8C400C0F3044520462B46FFF7A5
:1009D000A3FE21680120A840C1F8D000C4F894000B
:1009E000002070BD704790F89820012A09D0022A93
:1009F00007D0D0F89C1041F00201C0F89C100120F3
:100A00007047CA680B6893B1072A0B6943EA4273BF
:100A10002ED091F808C04A6942EA8C724968006F8A
:100A200000EBC100036042604FF000007047072AEE
:100A300012D091F808C04FEAC2624B6943EA8C7346
:100A4000B1F810C042EA0C4243EA02024968C06EA3
:100A500000EB81000260E7E70B8A4FF0605C8A6977
:100A600042EA0342CB694CEA032342EA0302EDE780
:100A70008A69D3E710B50446002C10D0204600F058
:100A8000B7FD2068C16D21F00301C165204600F06B
:100A90001FFC0020C4F89C0084F8980010BD0120C1
:100AA00010BD704710B58CB00446694600F028F8B8
:100AB000059801281DD110492068884219D1204687
:100AC000FFF7D8FF02F096FEFFF7F0FC38B920469A
:100AD00000F075FD002220460121FFF7F9FE0748CE
:100AE00000224FF00071FFF7F3FE002801D0FFF75E
:100AF000DAFC0CB010BD000000A00040C4000024CF
:100B00000068406C00F007020A60C0F302224A60ED
:100B100000F018028A60C0F34012CA60C0F380126D
:100B20000A61C0F3C0124A61C0F3C0228A61C0F3F7
:100B30000032CA61C0F340320A62C0F380324A62B6
:100B4000C0F306408862002070470000F0B44FF008
:100B5000000C90F89840022C08D0D0F89C1041F07E
:100B60000801C0F89C10F0BC0120704740294FF0EC
:100B700000450DD0412940D0046D8C4273D8D0F887
:100B80009C1041F02001C0F89C10F0BC012070477F
:100B90000468D4F8A06016F4FE0F1CD0D4F8A4604A
:100BA00016F07F0F20D0D4F8A46016F0807F06D016
:100BB000D4F8A060B5EBD67F01D14FF0010CD4F88A
:100BC000A440C4F30524A444456C446F05FB0CF514
:100BD00004EB85044DE0D0F89C1041F02001C0F8F2
:100BE0009C10F0BC01207047D0F89C1041F480713B
:100BF000C0F89C10F0BC012070470468D4F8B060C5
:100C000016F4FE0F1CD0D4F8B46016F07F0F20D07D
:100C1000D4F8B46016F0807F06D0D4F8B060B5EB9D
:100C2000D67F01D14FF0010CD4F8B440C4F30524B1
:100C3000A444C56C846F05FB0CF504EB850418E037
:100C4000D0F89C1041F02001C0F89C10F0BC0120AD
:100C50007047D0F89C1041F48071C0F89C10F0BC33
:100C600001207047FFE7456DC46F05FB01F504EBFC
:100C70008504256805F080455560EDB3256825F0AD
:100C800060451560256805F000559560256805F0FC
:100C900000451561241D2588ADB2D561256805F490
:100CA0007027D760256805F480155561256805F41F
:100CB000001595612568C5F3066515622568ED0F79
:100CC0005562251D00241A4E06EB17473F78002F6A
:100CD00008D92F5D1F55641CD76806EB17473F786E
:100CE000A742F6D8402911D0412913D0012220294A
:100CF00014D202FA01F100E003E00068C0F8981095
:100D000013E02568C5F38A451560BBE70068C0F8A5
:100D1000A8C00AE00068C0F8B8C006E0006801F0AA
:100D20001F0102FA01F1C0F89C100020F0BC7047CE
:100D300034400008704700002DE9F04F83B00446AE
:100D4000BC4F38688007391D096800EA817920683E
:100D5000016D01F47041426D02EA010A016D01F07A
:100D60000F01426D02EA010B016D01F0F001426DCD
:100D700011400291016D01F07151426D02EA0108CA
:100D8000016D01F06071426D11400191456D066D7C
:100D900015F4807F09D016F4807F06D0B91501655F
:100DA000002038602046FFF7C5FF15F4806F10D093
:100DB00016F4806F0DD02068D0F8DC10D0F8E42055
:100DC00011404FF48062026500203860204600F038
:100DD0006BFCB9F1000F0CD0216829F4401020F011
:100DE000404008654FEA9970386049462046FFF751
:100DF000F9FDBAF1000F0CD021682AF4401020F060
:100E0000404008654FEA9A7038605146204600F02D
:100E10004DFCBBF1000F0CD021682BF4401020F0EA
:100E2000404008654FEA9B7038605946204600F004
:100E3000BBFA029868B12168029820F4401020F0B3
:100E4000404008650298800F38600299204600F003
:100E5000B5FB15F4006F0BD016F4006F08D02168B5
:100E60004FF40060086500203860204600F01FFC49
:100E700015F4007F10D016F4007F0DD02068D0F854
:100E8000D810D0F8E02011404FF400720265002025
:100E90003860204600F009FC15F4002F0BD016F442
:100EA000002F08D021684FF400200865002038602A
:100EB000204600F077FA15F4803F0BD016F4803FFF
:100EC00008D021684FF48030086500203860204643
:100ED00000F0E9FB15F4802F0BD016F4802F08D01A
:100EE00021684FF48020086500203860204600F01B
:100EF000D9FB15F4003F0ED016F4003F0BD021684B
:100F00004FF40030086500203860D4F89C0040F0B1
:100F10008000C4F89C00019868B12168019820F411
:100F2000401020F0404008650198800F386001991A
:100F30002046FFF7B7FDB8F1000F0ED0216828F466
:100F4000401020F0404008654FEA98703860D4F8AF
:100F50009C0040EA0800C4F89C002068A0F1804191
:100F6000B1F520415CD16068816811F0030F57D062
:100F7000016A01F00F01426A1140026A02F0300278
:100F8000436A03EA0207026A02F4C072436A03EA90
:100F90000208026A02F4FC42436A03EA0205026A9A
:100FA00002F4F022436A03EA0206D0F82490D0F853
:100FB00020A019B10162204600F071FB2FB16068DA
:100FC00007623946204600F06CFB19F0400F0DD047
:100FD0001AF0400F0AD06068C16B090CC26B02F0B6
:100FE0003F0240230362204600F05AFBB8F1000F95
:100FF00006D06068C0F820804146204600F04EFBD5
:1010000035B160680562D4F89C002843C4F89C00A0
:1010100036B160680662D4F89C003043C4F89C0086
:10102000D4F89C00002802D02046FFF73AFD03B018
:10103000BDE8F08F10A800402DE9F04194B00446BF
:101040004C22A14901A8FFF797F95CB19F4F206896
:10105000B84202D100F58070606094F898000026D4
:1010600020B108E014B00120BDE8F08184F8996057
:10107000204600F049F92068816921F01001816162
:1010800000F0E6FC0546206880694FF0030810F088
:10109000080F15D000F0DCFC401B0A280BD9D4F84F
:1010A0009C0040F00100C4F89C0084F8988014B0C3
:1010B0000120BDE8F0812068806910F0080FE9D1B7
:1010C0002068816941F00101816100F0C1FC0546A1
:1010D0002068806910F0010F15D100F0B9FC401BA9
:1010E0000A280BD9D4F89C0040F00100C4F89C00F9
:1010F00084F8988014B00120BDE8F08120688069F0
:1011000010F0010FE9D02068816941F0020181618E
:10111000207C012839D02068816941F0400181613B
:10112000607C012837D02068816921F48041816189
:10113000A07C012835D02068816941F4805181610B
:1011400020688169A26821F440711143816120689F
:10115000816921F0A40181612068016921F01001F9
:101160000161E068012822D030B302282BD020682A
:10117000816941F0800181612068016941F01001BD
:101180000161E068032818D022E02068816921F01D
:1011900040018161C4E72068816941F48041816137
:1011A000C6E72068816921F480518161C8E7206821
:1011B000816941F0040181610AE02068816941F0A0
:1011C0002001816104E02068816941F02001816192
:1011D000207EE169401E491E400640EA0120216A46
:1011E000491E0843A18A491E40EA01402168C8619E
:1011F000A068B0F5407F0FD1E16AA06A491E401E89
:1012000040EA0120216B491E40EA0110A18C491ED1
:1012100040EA01402168C860206E30B12068D0F8F3
:10122000C010626E1143C0F8C010216EE06DC8425C
:1012300001A90AD02068D0F8C820A36E22F00702C6
:1012400051F823301A43C0F8C820206C50B12068F0
:10125000D0F8BC20636C22F0070251F823301A4307
:10126000C0F8BC20A06C58B12068D0F8BC20E36C5A
:1012700022F0700251F8233042EA0312C0F8BC2079
:10128000206D58B12068D0F8BC20636D22F4E06274
:1012900051F8231042EA0121C0F8BC102068B8427E
:1012A00004D16068816821F003018160C4F8946012
:1012B000C4F89C60012084F898002046FFF732F9BA
:1012C00014B0BDE8F08100004440000800A00040D8
:1012D00010B50068094988420ED10948016821F417
:1012E0008071016007484FF4C05100F0E1F9BDE89A
:1012F0001040132000F01CBC10BD000000A00040F6
:10130000EC4402580000025810B5B6B0044614214F
:1013100030A8FFF763F8C0216846FFF75FF81E4961
:101320002068884235D100204FF40041CDE90010FB
:101330004A0368461C9200F093FC08B1FFF7B3F82B
:101340001648016841F480710160006800F4807003
:10135000359012480C38016841F0010101600068C5
:101360000923022200F00100359000204FF4C05103
:10137000309130A9CDE93120CDE93303084800F0A0
:1013800057FA00220221132000F0F2FB132000F094
:10139000E1FB36B010BD000000A00040EC44025854
:1013A0000000025870470000F0B58BB07F4B402121
:1013B00007466A46FFF7CAFB0198B0F1804F0098D4
:1013C0001AD17A4DB0F5407F4FF4802240F2FF21D0
:1013D000A5F1400517D088420ED118232B700A249E
:1013E0006C701F21A970002029460346E87040F266
:1013F0000E3000BFFFF776F8002238460121FFF7D4
:1014000067FA0BB0F0BD03989042F5D168481021FF
:1014100000F008FB6549674C674E088820804A88C1
:101420006280A188104091430843E080C10701D049
:10143000012200E000223046012100F0FBFAA079F1
:101440004008C00701D0012200E0002230460221FE
:1014500000F0F0FAA0798008C00701D0012200E076
:1014600000223046042100F0E5FAA079C008C00748
:1014700001D0012200E000223046082100F0DAFA13
:10148000A0790009C00701D0012200E00022304607
:10149000102100F0CFFAA0794009C00701D0012245
:1014A00000E000223046202100F0C4FAA079800933
:1014B000C00701D0012200E000223046402100F0A8
:1014C000B9FAA079C009C00701D0012200E00022CA
:1014D0003046802100F0AEFAE0884FF48071000AB7
:1014E000C00701D0012200E00022304600F0A2FA3D
:1014F000E0884FF40071400AC00701D0012200E0EB
:101500000022304600F096FAE0884FF48061800AAD
:10151000C00701D0012200E00022304600F08AFA24
:10152000E0884FF40061C00AC00701D0012200E04A
:101530000022304600F07EFAE0884FF48051000B24
:10154000C00701D0012200E00022304600F072FA0C
:10155000E0884FF40051400BC00701D0012200E0A9
:101560000022304600F066FAE0884FF48041800B9C
:10157000C00701D0012200E00022304600F05AFAF4
:10158000E0884FF40041C00B01D0012200E00022AE
:10159000304600F04FFAE088002304494FF400324F
:1015A000A0804039288040F2013023E76000002409
:1015B000000402580000002400100258704790F800
:1015C0009810012907D0D0F89C1041F00401C0F810
:1015D0009C1001207047022180F8981001688A69E8
:1015E00022F001028A610021C0F89C10002070479F
:1015F000002190F89820022A07D0D0F89C1041F0E2
:101600000801C0F89C10012070470268936943F0FC
:10161000010393610268936913F0010F4FF0030314
:1016200011D1322909D9D0F89C1041F00101C0F83C
:101630009C1080F8983001207047491CD2F818C0DF
:101640001CF0010FEDD00021D2F818C02CF0100CC6
:10165000C2F818C00268D2F818C01CF0080F11D0E8
:10166000322909D9D0F89C1041F00101C0F89C1032
:1016700080F8983001207047491CD2F818C01CF03F
:10168000080FEDD1916941F0020191610021C0F88C
:101690009410012180F8981000207047704770471F
:1016A0007047704770477047704770477047704782
:1016B0002DE9F04F00235D4C00297DD04FF0B04A5A
:1016C0004FF0010E4FF00F090EFA03F707EA010C75
:1016D000BCF1000F71D023F0030202F1B045D5F840
:1016E00008249E074FEA167809FA08F606EA020B64
:1016F000A0F1B042B2F500327BD0A0F1B042B2F519
:1017000001327ED0A0F1B042B2F502327BD0A0F11E
:10171000B042B2F5033278D0A0F1B042B2F5043253
:1017200075D0A0F1B042B2F5053272D0A0F1B0424E
:10173000B2F5063272D0A0F1B042B2F507326FD0E6
:10174000A0F1B042B2F508326CD0A0F1B042B2F5CF
:10175000093269D00A2202FA08F25A4518D12268E1
:1017600022EA0C022260626822EA0C026260DAF865
:10177000042022EA0C02CAF80420DAF8002022EA47
:101780000C02CAF80020D5F80824B243C5F8082492
:10179000D0F800C05D000322AA404CEA020CC0F859
:1017A00000C04FEAD30C00EB8C0CDCF820505E0735
:1017B000F60E09FA06F601E019E013E0B543CCF89D
:1017C0002050D0F80CC02CEA020CC0F80CC0D0F8A5
:1017D00004C02CEA070CC0F804C0D0F808C02CEAFA
:1017E000020282605B1C31FA03F27FF46DAFBDE848
:1017F000F08F04E005E006E007E008E009E00022E1
:10180000A9E70122A7E70222A5E70322A3E7042212
:10181000A1E705229FE701E002E003E006229AE744
:10182000072298E7082296E7092294E780000058EB
:101830002DE9F84F0022DFF8E4C10B68002B7DD0C2
:10184000DFF8DCB14FF0B04A4FF0010E4FF0030863
:101850004FF00F090B680EFA02F52B40002B6ED0EB
:101860000C7904F00304012C01D0022C11D18668FC
:10187000540008FA04F7BE43CF6807FA04F434436F
:1018800084604468AC430D79C5F3001595402C4342
:1018900044604C6838EA040409D0C568540008FA6A
:1018A00004F6B5438E6806FA04F42C43C4600C7940
:1018B00004F00304022C0DD1D40800EB84052E6A39
:1018C0005407E40E09FA04F7BE430F6907FA04F45B
:1018D00034432C620568540008FA04F6B5430E79C7
:1018E00006F0030606FA04F42C4304604C6814F472
:1018F000403F78D0DBF8004044F00204CBF80040D1
:10190000DBF8004004F00204009422F0030404F128
:10191000B046D6F8084495072D0F09FA05F724EAD2
:101920000707A0F1B044B4F5003463D0A0F1B0448F
:10193000B4F5013460D0A0F1B04401E058E052E0C9
:10194000B4F502345AD0A0F1B044B4F5033457D002
:10195000A0F1B044B4F5043454D0A0F1B044B4F5CF
:10196000053451D0A0F1B044B4F506344ED0A0F106
:10197000B044B4F507344BD0A0F1B044B4F508340A
:1019800048D0A0F1B044B4F5093445D00A24AC40A5
:101990003C43C6F80844DAF800409C434D6815F40F
:1019A000801F00D01C43CAF80040DAF804409C4372
:1019B0004D6815F4001F00D01C43CAF80440DCF841
:1019C00004409C434D6815F4003F00D01C43CCF804
:1019D0000440DCF800409C434D6815F4803F00D083
:1019E0001C43CCF80040521C0B68D3407FF432AF4C
:1019F000BDE8F88F0024CAE70124C8E70224C6E73F
:101A00000324C4E70424C2E70524C0E70624BEE794
:101A10000724BCE70824BAE70924B8E78000005887
:101A2000F4440258426921EA0203114043EA0141A9
:101A300081617047002A01D081617047090481618A
:101A40007047000001480068000C70470010005CFF
:101A50000148806870470000140000240248816833
:101A600002781144816070471400002410B50320EF
:101A700000F0B4F800F0A6FF0F4A1168C1F3032389
:101A80000E49CB5C03F01F03D840126802F00F022E
:101A9000895C0B4A01F01F0120FA01F1116009492C
:101AA0000860002000F010F808B1012010BD00F01F
:101AB00031F8002010BD00001844025822400008F0
:101AC000100000240C00002470B504460F4D2A7845
:101AD000002A0CD04FF47A700D49B0FBF2F009687F
:101AE000B1FBF0F001F0FAFB18B1012070BD01204C
:101AF00070BD102C07D200222146501E00F038F88D
:101B00006C60002070BD012070BD00001400002436
:101B10000C000024054808B5016841F0020101608D
:101B2000006800F00200009008BD0000F444025874
:101B300000280EDB012200F01F0102FA01F140092A
:101B4000800000F1E020C0F88011BFF34F8FBFF399
:101B50006F8F704700280ADB012200F01F0102FA94
:101B600001F14009800000F1E020C0F80011704749
:101B70004DF8044D184B1B68C3F30223C3F1070C47
:101B8000BCF1040F01D94FF0040C1C1D072C01D22D
:101B9000002300E0DB1E012404FA0CFCACF1010C74
:101BA0000CEA0101994004FA03F35B1E1A40114349
:101BB000002807DB00F1E020090180F800145DF83F
:101BC000044B704700F00F0000F1E020090180F89D
:101BD000141D5DF8044B70470CED00E000F00700A9
:101BE000064A11684FF6FF03194041EA002040F011
:101BF000FD7040F080601060704700000CED00E068
:101C000070B515490A6812F0040F0DD00A6822F069
:101C1000070210430860FFF71BFF04460F4D2868BA
:101C200010F4005F09D014E0096801F00701814257
:101C300001D0012070BD002070BDFFF709FF001B1F
:101C4000B0F57A7F01D9012070BD286810F4005FDB
:101C5000F3D0002070BD00000C4802580448025820
:101C60002DE9F84F0446002500262068C04310F0F7
:101C7000006FFE4FDFF8F8830DD1A06E88B1B0F58C
:101C8000801F13D0B0F5001F17D0B0F5401F00D053
:101C90000125CDB12E462088C04310F4807F1CD092
:101CA00039E0386840F400303860F2E7022104F18E
:101CB000080001F079FE0546EBE7022104F1280057
:101CC00001F012FF0546E4E7D8F80000A16E20F409
:101CD00040100843C8F80000DDE7A06D052817D2C2
:101CE000DFE800F003080F171700386840F40030F1
:101CF00038600EE0002104F1080001F055FE0546B1
:101D000007E0002104F1280001F0EEFE054600E0A6
:101D1000012535B12E462088C04310F4007F09D03C
:101D200018E0D8F80000A16D20F007000843C8F8BB
:101D30000000F0E7E06D802820D003DC90B140285F
:101D400005D114E0C02803D0B0F5807F00D0012574
:101D5000DDB12E462088DFF81C93C04310F4806F5D
:101D60001CD02FE0386840F400303860F0E70021E4
:101D700004F1080001F018FE0546E9E7002104F12E
:101D8000280001F0B1FE0546E2E7D8F80000E16D59
:101D900020F4E0700843C8F80000DBE7D4F8A8009E
:101DA000B0F5800F20D004DC90B1B0F5001F06D153
:101DB00013E0B0F5C00F03D0B0F5000F00D001253F
:101DC000CDB12E462088C04310F4006F1DD030E006
:101DD000386840F400303860F2E7002104F1080070
:101DE00001F0E2FD0546EBE7002104F1280001F0D7
:101DF0007BFE0546E4E7D9F80000D4F8A81020F4EB
:101E000060000843C9F80000DCE7D4F8AC00B0F18A
:101E1000007F20D004DC90B1B0F1807F06D113E0C8
:101E2000B0F1407F03D0B0F1806F00D00125CDB17B
:101E30002E462068C04310F0007F1DD027E0386890
:101E400040F400303860F2E7002104F1080001F0AE
:101E5000ABFD0546EBE7002104F1280001F044FE4C
:101E60000546E4E7D9F80000D4F8AC1020F0E060B3
:101E70000843C9F80000DCE7E06C30B110280CD052
:101E800020280FD0302800D0012595B12E4620887B
:101E9000C04310F4805F14D026E0386840F400306E
:101EA0003860F2E7022104F1080001F07DFD0546EB
:101EB000EBE771480168E26C21F0300111430160E9
:101EC000E5E7206EB0F5005F20D004DC90B1B0F5FE
:101ED000805F06D113E0B0F5405F03D0B0F5804FCE
:101EE00000D00125CDB12E462088C04310F4005FFC
:101EF0001CD031E0386840F400303860F2E700214F
:101F000004F1080001F050FD0546EBE7002104F163
:101F1000280001F0E9FD0546E4E7D8F80000216E4D
:101F200020F4E0400843C8F80000DDE7606EB0F53B
:101F3000403F0FD007DC68B1B0F5803F12D0B0F55C
:101F4000003F06D115E0B0F5802F03D0B0F5A02FEB
:101F500000D00125A5B12E462088C04310F4804F43
:101F600017D02DE0012104F1080001F01DFD054608
:101F7000F0E7012104F1280001F0B6FD0546E9E78C
:101F8000D8F80000616E20F4E0200843C8F8000093
:101F9000E2E7D4F8B000B0F1405F0FD007DC68B1E1
:101FA000B0F1805F12D0B0F1005F06D115E0B0F162
:101FB000804F03D0B0F1A04F00D00125A5B12E462F
:101FC0002088C04310F4004F18D022E0012104F112
:101FD000080001F0E9FC0546F0E7012104F12800C2
:101FE00001F082FD0546E9E7D9F80000D4F8B01009
:101FF00020F0E0400843C9F80000E1E7206F30B16D
:10200000B0F1805F0BD0B0F1005F0DD0012595B12C
:102010002E462068C04310F0807F15D01FE038683E
:1020200040F400303860F2E7012104F1080001F0CB
:10203000BBFC0546EBE7D8F80000216F20F04050CC
:102040000843C8F80000E4E7A06C30B1012819D0BB
:1020500002281CD0032800D00125FDB12E4620689F
:10206000DFF818B0C04310F4800F09E02C44025888
:1020700050440258584402584C44025810440258E4
:1020800014D030E0386840F400303860E5E70221D1
:1020900004F1080001F088FC0546DEE7F848016815
:1020A000A26C21F0030111430160D8E7F5480068F4
:1020B00040F48071F3480160FFF7CAFC8246F148A2
:1020C000006810F4807F0CD1FFF7C2FCA0EB0A007F
:1020D000642801D9032504E0EA48006810F4807FF1
:1020E000F2D045B12E462078DFF89CA3C04310F013
:1020F000010F60D070E0DFF894A3DAF80000B4F8C4
:10210000B41000F4407001F44071884211D0DAF844
:10211000000020F44070DAF8001041F48031CAF871
:102120000010DAF8001021F48031CAF80010CAF863
:102130000000D4F8B400B0F5807F16D1FFF788FC1A
:102140000090DAF8000010F0020F0ED1FFF780FCCB
:102150000099411A41F28830814201D9032504E0F7
:10216000DAF8000010F0020FF0D00DB12E46BAE7F9
:10217000D4F8B4004FF4407181430FD0DBF8000075
:1021800020F47C50CBF80000DAF80000B4F8B4106A
:10219000C1F30B010843CAF80000A4E7DBF8001004
:1021A00020F4407020F0704021F47C5141EA10107E
:1021B000CBF80000E8E7E06F18280BD005DC48B149
:1021C00008280FD0102804D113E0202802D0282896
:1021D00000D00125A5B12E462078C04310F0020F93
:1021E00017D02FE0012104F1080001F0DDFB0546C6
:1021F000F0E7012104F1280001F076FC0546E9E74B
:10220000DAF80000E16F20F038000843CAF8000057
:10221000E2E7A06F062812D2DFE800F012030A12EC
:102220001212012104F1080001F0BEFB054607E08F
:10223000012104F1280001F057FC054600E00125CA
:1022400035B12E462078C04310F0040F09D022E0AB
:10225000DAF80000A16F20F007000843CAF8000078
:10226000F0E7D4F89400062812D2DFE800F0120359
:102270000A121212012104F1080001F095FB054633
:1022800007E0012104F1280001F02EFC054600E0E2
:10229000012535B12E462078C04310F0200F0AD01A
:1022A00020E0D9F80000D4F8941020F0070008438B
:1022B000C9F80000EFE7D4F89000B0F1405F0FD00C
:1022C00007DC68B1B0F1805F12D0B0F1005F06D1D9
:1022D00015E0B0F1804F03D0B0F1A04F00D0012540
:1022E000A5B12E462078C04310F0400F18D02EE044
:1022F000002104F1080001F057FB0546F0E7022138
:1023000004F1280001F0F0FB0546E9E7DAF80000E7
:10231000D4F8901020F0E0400843CAF80000E1E74C
:10232000D4F89C00B0F5406F0FD007DC68B1B0F571
:10233000806F12D0B0F5006F06D115E0B0F5805F68
:1023400003D0B0F5A05F00D00125A5B12E462078BE
:10235000C04310F0800F18D02EE0002104F10800D7
:1023600001F022FB0546F0E7022104F1280001F00C
:10237000BBFB0546E9E7D9F80000D4F89C1020F42F
:10238000E0500843C9F80000E1E7D4F8A000B0F538
:10239000C04F0FD007DC68B1B0F5005F12D0B0F5C8
:1023A000804F06D115E0B0F5004F03D0B0F5204FB7
:1023B00000D00125A5B12E462078C04310F0080FAB
:1023C00018D02CE0002104F1080001F0EDFA0546D8
:1023D000F0E7022104F1280001F086FB0546E9E759
:1023E000D9F80000D4F8A01020F460400843C9F8E0
:1023F0000000E1E7D4F88400B0F5805F06D1022147
:1024000004F1280001F070FB00B10126DAF80000A9
:10241000D4F8841020F440500843CAF80000207813
:10242000C04310F0100F14D1D4F89800B0F5807F9D
:1024300006D1022104F1280001F056FB00B101266B
:10244000D9F80000D4F8981020F440700843C9F877
:1024500000002068C04310F4002F0BD1D4F8A40072
:10246000B0B1B0F5803F1AD0B0F5003F00D00125E3
:10247000E5B12E462068C04310F4802F20D02DE017
:102480004C440258004802585444025870440258C0
:10249000002104F1080001F087FA0546E8E702216F
:1024A00004F1280001F020FB0546E1E7D9F800001F
:1024B000D4F8A41020F440300843C9F80000D9E74C
:1024C000D4F88800B0F5801F0ED0B0F5001F10D0F2
:1024D000B0F5401F00D0012595B12E462068C043BD
:1024E00010F4803F16D01DE0386840F400303860AA
:1024F000F2E7012104F1280001F0F6FA0546EBE7C6
:10250000DAF80000D4F8881020F440100843CAF824
:102510000000E3E7206D58B1B0F5803F0DD00125F4
:1025200095B12E462068C04310F0005F14D01AE029
:10253000386840F400303860F2E7022104F1080006
:1025400001F032FA0546EBE76E480168226D21F48E
:10255000803111430160E5E7022104F1280001F018
:10256000C3FA00B101262068C04310F4003F0ED129
:10257000D4F8800048B1B0F5807F0ED0B0F5007F70
:1025800003D0B0F5407F00D001255DB12E46206814
:10259000C04310F4801F0FD016E0386840F40030BC
:1025A0003860F2E7DAF80000D4F8801020F44070C8
:1025B0000843CAF80000EAE7D8F80000616F20F08D
:1025C00000400843C8F800002068C04310F0805F56
:1025D00008D1DBF80000D4F8B81020F4804008439C
:1025E000CBF800002068C04310F4001F07D1D8F8D2
:1025F0000000E16E20F080700843C8F800002068F9
:10260000C04310F0804F0CD1DBF8000020F40040F4
:10261000CBF80000DBF80000D4F8BC100843CBF87E
:1026200000002068C04310F0004F06D13548016813
:10263000626D21F04051114301602068C04310F4E5
:10264000000F08D1DAF80000D4F88C1020F4400014
:102650000843CAF8000020790025C04300F00100BB
:10266000284306D1002104F1080001F09DF900B1D2
:1026700006462079C04300F00200284306D101211C
:1026800004F1080001F090F900B106462079C0433A
:1026900000F00400284306D1022104F1080001F0F3
:1026A00083F900B106462079C04300F008002843B2
:1026B00006D1002104F1280001F016FA00B1064607
:1026C0002079C04300F01000284306D1012104F115
:1026D000280001F009FA00B106462079C04300F055
:1026E0002000284306D1022104F1280001F0FCF962
:1026F00000B1064616B10120BDE8F88F0020BDE804
:10270000F88F00004C4402582DE9F05F04460D4656
:10271000002C17D0DFF88492D9F8000000F00F00E9
:10272000A84212D2D9F8000020F00F002843C9F8BF
:102730000000D9F8000000F00F00A84205D00120E9
:10274000BDE8F09F0120BDE8F09F2078944E10F086
:10275000040F0AD02069316801F07001884204D961
:10276000316821F070010843306020788D4F10F0FF
:10277000080F0AD06069396801F07001884204D9F5
:10278000396821F0700108433860207810F0100F8C
:102790000AD0A069396801F4E061884204D9396837
:1027A00021F4E061084338602078DFF8FCB110F0D4
:1027B000200F0DD0E069DBF8001001F070018842B5
:1027C00006D9DBF8001021F070010843CBF80000B7
:1027D000207810F0020F0AD0E068316801F00F0194
:1027E000884204D9316821F00F0108433060207815
:1027F00010F0010F51D03068A16820F470600843D8
:10280000306060686949022808D003280DD001288B
:1028100012D0096811F0040F34D011E0096811F4E6
:10282000003F0DD10120BDE8F09F096811F0007F45
:1028300006D10120BDE8F09F096811F4807F1ED009
:10284000DFF86CA1DAF8001021F007010843CAF89C
:102850000000FFF7FDF88046DAF80000616800F03C
:102860003800B0EBC10F18D0FFF7F2F8A0EB080169
:1028700041F28830814208D90320BDE8F09F012051
:10288000BDE8F09F0120BDE8F09FDAF80000616824
:1028900000F03800B0EBC10FE6D1207810F0020F45
:1028A0000AD0E068316801F00F01884204D2316833
:1028B00021F00F0108433060D9F8000000F00F004C
:1028C000A8420FD9D9F8000020F00F002843C9F81A
:1028D0000000D9F8000000F00F00A84202D001204B
:1028E000BDE8F09F207810F0040F0AD0206931680D
:1028F00001F07001884204D2316821F07001084370
:102900003060207810F0080F0AD06069396801F053
:102910007001884204D2396821F0700108433860A0
:10292000207810F0100F0AD0A069396801F4E06136
:10293000884204D2396821F4E06108433860207885
:1029400010F0200F0DD0E069DBF8001001F07001ED
:10295000884206D2DBF8001021F070010843CBF862
:10296000000000F02FF83168C1F3032211498A5C9E
:1029700002F01F02D040326802F00F02895C0E4A5A
:1029800001F01F0120FA01F111600C4908600C48A8
:102990000068BDE8F05FFFF797B800000020005224
:1029A000184402581C44025820440258004402585B
:1029B0001044025822400008100000240C0000249B
:1029C000180000244DF8044D69480068DFF8A4C1E0
:1029D000694B10F038014ED008294FEA2C1047D02F
:1029E000102959D0182943D16448016801F0030126
:1029F0000068C0F30510624A126802F00102614CDF
:102A00002468C4F3CC0414FB02F200EE102AB8EEE2
:102A1000400A00287BD0DFED5C0A5C4AB7EE001A62
:102A2000A9B39FED5B2A012974D0022971D001EE70
:102A3000900A1068F8EE611AC2EE212AC0F308006D
:102A400001EE900AF8EE611A40EE201A31EE810A8A
:102A500022EE800A1068C0F34620401C00EE900A67
:102A6000F8EE600A80EE201ABCEEC10A10EE100AE1
:102A70005DF8044B7047186810F0200F08D01868F4
:102A80005DF8044BC0F3C1002CFA00F0704707E07A
:102A90005DF8044B604670473E485DF8044B704754
:102AA000196811F0200F1CD01968C1F3C1012CFA6C
:102AB00001F101EE901AF8EE612A01EE900A106819
:102AC000F8EE611A82EEA12AC0F3080001EE900A26
:102AD000F8EE611A40EE201A31EE810A22EE000A69
:102AE000B8E701EE900ADFED2C2A1068F8EE611AC3
:102AF00082EEA12AC0F3080001EE900AF8EE611AF6
:102B000040EE201A31EE810A22EE000AA2E72BE005
:102B100000E013E001EE900A1068F8EE611AC2EED0
:102B2000212AC0F3080001EE900AF8EE611A40EE87
:102B3000201A31EE810A22EE800A8BE701EE900A1C
:102B4000DFED162A1068F8EE611A82EEA12AC0F3B2
:102B5000080001EE900AF8EE611A40EE201A31EEFC
:102B6000810A22EE000A75E75DF8044B00207047E9
:102B7000104402580090D0030044025828440258E0
:102B80002C440258344402580000003930440258A2
:102B90000024744A00127A000024744C0024F44A81
:102BA0002DE9F05F0446002C11D02078DFF8F8837F
:102BB000FE4F10F0010FFE4D6BD0D8F8000000F072
:102BC00038003968102823D0182803D006E00120E7
:102BD000BDE8F09F01F00300022819D06068B0F54D
:102BE000803F1ED010B3B0F5A02F28D0286820F465
:102BF00080302860286820F480202860606878B3DE
:102C0000FEF726FF0646286810F4003F20D040E07B
:102C1000286810F4003F3CD0606830BB0120BDE85C
:102C2000F09F286840F480302860E7E7286820F4A7
:102C300080302860286820F480202860DEE728683B
:102C400040F480202860286840F480302860D5E770
:102C5000FEF7FEFE801B642803D90320BDE8F09F29
:102C600004E0286810F4003FF2D012E0FEF7F0FE16
:102C70000646286810F4003F0BD0FEF7E9FE801BE3
:102C8000642802D90320BDE8F09F286810F4003FB3
:102C9000F3D1207841F2030AC64E10F0020F4BD058
:102CA000D8F8000000F038003968A0B1182802D127
:102CB00011F0030F0FD0E068002878D0296821F0C8
:102CC000190108432860FEF7C3FE8146286810F00A
:102CD000040F41D04DE0286810F0040F01D0E068E7
:102CE00068B12868E16820F0190008432860FEF701
:102CF000AFFE8146286810F0040F03D00FE00120DA
:102D0000BDE8F09FFEF7A4FEA0EB0900022802D95F
:102D10000320BDE8F09F286810F0040FF2D0FEF702
:102D200091FE504510D82069402806D0316821F422
:102D30007C3141EA0030306051E0306820F47C3072
:102D400040F4003030604AE03068217C20F0FE40E2
:102D500040EA0160306042E0FEF77AFEA0EB090035
:102D6000022802D90320BDE8F09F286810F0040F64
:102D7000F2D0FEF767FE504511D82069402806D0F2
:102D8000316821F47C3141EA0030306027E030685E
:102D900020F47C3040F40030306020E007E0306800
:102DA000217C20F0FE4040EA0160306017E0286896
:102DB00020F001002860FEF74BFE8146286810F0E5
:102DC000040F0CD0FEF744FEA0EB0900022802D944
:102DD0000320BDE8F09F286810F0040FF2D120789E
:102DE00010F0100F45D0D8F8000000F03800396816
:102DF000DFF8C4B1082813D0182803D101F003006C
:102E000001280DD0E069A8B3286840F08000286050
:102E1000FEF71EFE8146286810F4807F2BD037E035
:102E2000286810F4807F05D0E069802802D0012056
:102E3000BDE8F09FFEF706FE504510D8206A202816
:102E400006D0316821F0F84141EA8060306056E0F8
:102E5000306820F0F84040F0804030604FE0DBF810
:102E6000000094F8201020F07C5040EA0160CBF87C
:102E7000000044E02CE0FEF7EBFDA0EB0900022887
:102E800002D90320BDE8F09F286810F4807FF2D0BB
:102E9000FEF7D8FD504510D8206A202806D03168AA
:102EA00021F0F84141EA8060306028E0306820F08D
:102EB000F84040F08040306021E0DBF8000094F8FA
:102EC000201020F07C5040EA0160CBF8000016E0B2
:102ED000286820F080002860FEF7BAFD06462868C2
:102EE00010F4807F0BD0FEF7B3FD801B022802D9BF
:102EF0000320BDE8F09F286810F4807FF3D120788C
:102F000010F0080F3AD0DFF8B4906069D8B1D9F862
:102F1000000040F00100C9F80000FEF799FD0646E8
:102F2000D9F8000010F0020F28D1FEF791FD801BA8
:102F3000022802D90320BDE8F09FD9F8000010F064
:102F4000020FF2D01AE0D9F8000020F00100C9F811
:102F50000000FEF77DFD0646D9F8000010F0020FD4
:102F60000CD0FEF775FD801B022802D90320BDE8B6
:102F7000F09FD9F8000010F0020FF2D1207810F085
:102F8000200F3DD0A06920B3286840F4805028600D
:102F9000FEF75EFD0646286810F4005F30D1FEF7AC
:102FA00057FD801B02280BE01044025828440258A9
:102FB00000440258044402580C4402587444025815
:102FC00002D90320BDE8F09F286810F4005FE6D026
:102FD00016E0286820F480502860FEF739FD064688
:102FE000286810F4005F0BD0FEF732FD801B02282A
:102FF00002D90320BDE8F09F286810F4005FF3D1E8
:10300000207810F0040F6CD0B14E306840F480701E
:103010003060FEF71DFD8146306810F4807F0CD1D2
:10302000FEF716FDA0EB0900642802D90320BDE8D5
:10303000F09F306810F4807FF2D0A068A54E012880
:1030400016D0D0B1052821D0306820F001003060C2
:10305000306820F004003060A06841F2883A60B324
:10306000FEF7F6FC8146306810F0020F17D038E00A
:10307000306840F001003060EEE7306820F0010079
:103080003060306820F004003060E5E7306840F0E0
:1030900004003060306840F001003060DCE7FEF78B
:1030A000D7FCA0EB0900504502D90320BDE8F09FF2
:1030B000306810F0020FF2D013E0FEF7C9FC814631
:1030C000306810F0020F0CD0FEF7C2FCA0EB090034
:1030D000504502D90320BDE8F09F306810F0020F80
:1030E000F2D1616AA1B3D8F80000DFF8EC9100F0EA
:1030F0003800182809F10408A9F104067DD0022936
:1031000012D0286820F080702860FEF7A1FC0446E9
:10311000286810F0007F1BD0FEF79AFC001B0228E5
:103120006CD90320BDE8F09F286820F080702860EB
:10313000FEF78EFC8246286810F0007F0DD0FEF767
:1031400087FCA0EB0A00022803D90320BDE8F09F0A
:10315000BBE0286810F0007FF1D13868E16A20F008
:10316000F30020F4407040EA0110A16A084338607F
:10317000208E4FF47E42616B401E491EC0F3080052
:1031800002EA41210843218FD201491E02EA01418E
:10319000084394F83C10491E120202EA01610843F8
:1031A000C9F80000306820F001003060D8F8000055
:1031B000A16C6FF3CF0040EAC100C8F8000030688E
:1031C000216C20F00C00084330603068616C20F006
:1031D000020008433060306840F48030306030686E
:1031E00040F400303060306840F480203060306857
:1031F00040F001003060286801E01DE016E040F07A
:1032000080702860FEF724FC0446286810F0007FD8
:103210005BD1FEF71DFC001B022802D90320BDE88C
:10322000F09F286810F0007FF3D04EE0286810F07F
:10323000007F7FF471AF48E03A68D9F800000129B7
:1032400021D0A36A02F0030199421CD1E16AC2F3C2
:103250000512914217D1226BC0F30801521E914210
:1032600011D1616BC0F34622491E91420BD1A16B73
:10327000C0F30642491E914205D1E16BC0F30660DE
:10328000491E814202D00120BDE8F09FD8F800001D
:10329000C0F3CC00A16C814217D0306820F001004F
:1032A0003060FEF7D5FB0546FEF7D2FBA842FBD007
:1032B000D8F80000A16C6FF3CF0040EAC100C8F855
:1032C0000000306840F0010030600020BDE8F09F51
:1032D000004802587044025830440258401EB0F171
:1032E000807F01D3012070474FF0E0214861F0203A
:1032F000034A107000208861072008610020704791
:1033000023ED00E07047704770470000F0B490F87C
:103310003C20012A46D0012480F83C40022280F85B
:103320003D2003685A68D3F808C0204D204EAB42B8
:1033300001D0B34203D122F470024F683A4322F025
:1033400070020F683A435A600268AA421DD0B2F177
:10335000804F1AD0A2F18043B3F5806315D0A2F15B
:103360008043B3F5006310D0A2F18043B3F540630E
:103370000BD0B24209D0A2F18043B3F5C05304D0C0
:10338000A2F18043B3F5A03304D12CF08003896807
:103390001943916080F83D40002180F83C100020E6
:1033A000F0BC7047F0BC02207047000000000140F4
:1033B0000004014010B50446002C03D094F83D00F1
:1033C00010B107E0012010BD002084F83C00204629
:1033D00000F022F8022084F83D002068211D00F052
:1033E0002BFD012084F8480084F83E0084F83F005B
:1033F00084F8400084F8410084F8420084F84300D7
:1034000084F8440084F8450084F8460084F84700B6
:1034100084F83D00002010BD08B500680B498842C3
:1034200012D10B48016841F00101016000680022DF
:10343000114600F0010000901920FEF799FBBDE84D
:1034400008401920FEF786BB08BD000000000140BF
:10345000F044025890F83D10012901D00120704736
:10346000022180F83D100168CA6842F00102CA607A
:103470000068A0F18041B1F5803126D0B0F1804FD5
:1034800023D0A0F18041B1F580611ED0A0F1804130
:10349000B1F5006119D0A0F18041B1F5406114D0BF
:1034A000A0F18041B1F582310FD0A0F18041B1F59A
:1034B000C0510AD0A0F18041B1F5A03105D001681A
:1034C00041F001010160002070478168054A114008
:1034D0000629F8D0B1F5803FF5D0016841F001012F
:1034E0000160F0E70700010070B50446002594F87C
:1034F0003C00012816D0012684F83C60022084F8A4
:103500003D002068826822F0770222F4441222F4FF
:103510007F428260086870282FD010DC10F00F0FF7
:1035200003D022E04FF0020070BD4FEA2012072ABC
:103530001BD2DFE802F0585858584E3A4400B0F118
:10354000101F50D009DCB0F5805F0FD0B0F5005FE0
:103550001FD0B0F5801F08D145E0A0F580112039BB
:1035600041D010293FD020293DD0012584F83D606D
:10357000002084F83C00284670BDCB684A68896802
:10358000206800F0BDFC2068816841F0770181600F
:10359000ECE7CB684A688968206800F0B1FC2068D5
:1035A000816841F480418160E0E7CA684968206829
:1035B00000F0BBFC2068502100F0ADFCD6E7CA68E3
:1035C0004968206800F0C4FC2068602100F0A3FC7A
:1035D000CCE7CA684968206800F0A7FC2068402151
:1035E00000F099FCC2E722680146104600F093FC07
:1035F000BCE7704770B50446206801694FF00005CC
:1036000011F0020F17D0C16811F0020F13D0E91E9C
:103610000161012020772068806910F0030F03D03A
:103620002046FFF7E6FF05E0204600F0ACF8204614
:1036300000F0AAF825772068016911F0040F18D06E
:10364000C16811F0040F14D06FF004010161022071
:1036500020772068806910F4407F03D02046FFF770
:10366000C8FF05E0204600F08EF8204600F08CF8F8
:1036700025772068016911F0080F18D0C16811F092
:10368000080F14D06FF00801016104202077206832
:10369000C06910F0030F03D02046FFF7AAFF05E032
:1036A000204600F070F8204600F06EF8257720687C
:1036B000016911F0100F18D0C16811F0100F14D06B
:1036C0006FF010010161082020772068C06910F4B4
:1036D000407F03D02046FFF78CFF05E0204600F036
:1036E00052F8204600F050F825772068016911F063
:1036F000010F09D0C16811F0010F05D06FF0010171
:103700000161204600F042F82068016911F0800F45
:1037100009D0C16811F0800F05D06FF08001016100
:103720002046FFF7F0FD2068016911F4807F09D081
:10373000C16811F0800F05D06FF4807101612046DF
:10374000FFF7E0FD2068016911F0400F09D0C16862
:1037500011F0400F05D06FF040010161204600F0EC
:103760002FF82068016911F0200F0BD0C16811F00B
:10377000200F07D06FF0200101612046BDE87040A6
:10378000FFF7C2BD70BD704770470000094900686F
:10379000096888420CD108498868401C8860B0F5E7
:1037A0007A7F05D30020886004480821FEF73AB9E3
:1037B0007047000064010024000000240004025847
:1037C0007047FEE70A480021084B012210B503604C
:1037D00001714171416102628161FDF725F80028A4
:1037E00003D0BDE81040FCF75EBE10BD004C02588F
:1037F000A00000241A4800212DE9F041174F4FF492
:10380000407607600125C0E9026105740F24417408
:1038100008268174042346610226C0E90654122258
:10382000C0E90836C0E90C318163C0E90F130323F6
:10383000C0E91121C0E91321C0E91521C0E917131E
:10384000C0E91912C0E90A54FDF7F6FB002803D0BD
:10385000BDE8F041FCF727BEBDE8F08100A00040C4
:10386000C40000242DE9F04186B014216846FCF71D
:10387000B5FD2D48016841F010010160016801F0BB
:1038800010010591016841F080010160016801F0BB
:1038900080010591016841F002010160016801F0B9
:1038A00002010591016841F00101016000684FF6D5
:1038B000FF761E4F002200F0010031460590384689
:1038C000FEF7B8F8DFF8688000224BF21801404696
:1038D000FEF7B0F800240096012569463846CDE988
:1038E00001540394FDF7A4FF03214FF43040CDE9C8
:1038F0000005CDE9024169464046FDF799FFA8035E
:103900006946CDE9000440460294FDF791FF182076
:103910006946CDE90005CDE902544046FDF788FF30
:1039200006B0BDE8F0810000E044025800100258E3
:103930000004025810B588B0184800241649C72260
:1039400040F2F313009401940294039404940594B8
:10395000069480E81600C0E9033444618461FFF7EF
:1039600029FD08B1FCF79FFD4FF4805000900B48F3
:103970006946FFF7B9FD08B1FCF795FD074804A9B2
:10398000049405940694FFF7C1FC002801D0FCF7CD
:103990008AFD08B010BD0000000001406401002451
:1039A000FEE7FEE7704700002DE9F0470446884631
:1039B0000027DFF82091D9F80000032131EA000048
:1039C00013D0454D286820F080602860FEF740F84D
:1039D0000646286810F0006F0ED0FEF739F8801BFD
:1039E000022805D90320BDE8F0870120BDE8F08753
:1039F000286810F0006FF0D1D9F80000216820F499
:103A00007C3040EA0130C9F80000A0884FF47E42C3
:103A1000A168401E491EC0F3080002EA4121084384
:103A2000A189D201491E02EA01410843217C491EB5
:103A3000120202EA01610843284908602848016827
:103A4000626921F0C001114301600168A26921F09F
:103A5000200111430160016821F01001016021493A
:103A60000A68E3696FF3CF0242EAC3020A600168A1
:103A700041F010010160B8F1000F12D0B8F1010F50
:103A800014D0016841F400110160286840F08060A2
:103A90002860FDF7DDFF0446286810F0006F0AD0AB
:103AA00015E0016841F400210160EEE7016841F48E
:103AB00080110160E9E7FDF7CBFF001B022802D966
:103AC0000320BDE8F087286810F0006FF3D0384677
:103AD000BDE8F08728440258004402583844025890
:103AE0002C4402583C4402582DE9F04704468846CD
:103AF0000027DFF82091D9F80000032131EA000007
:103B000013D0454D286820F080502860FDF7A0FFB5
:103B10000646286810F0005F0ED0FDF799FF801B65
:103B2000022805D90320BDE8F0870120BDE8F08711
:103B3000286810F0005FF0D1D9F80000218820F04B
:103B40007C7040EA0150C9F80000A0884FF47E4222
:103B5000A168401E491EC0F3080002EA4121084343
:103B6000A189D201491E02EA01410843217C491E74
:103B7000120202EA016108432849086028480168E6
:103B8000626921F44061114301600168A26921F476
:103B9000007111430160016821F4807101602149C5
:103BA0000A68E3696FF3CF0242EAC3020A60016860
:103BB00041F480710160B8F1000F12D0B8F1010F2B
:103BC00014D0016841F080710160286840F0805095
:103BD0002860FDF73DFF0446286810F0005F0AD01A
:103BE00015E0016841F480010160EEE7016841F4ED
:103BF00000010160E9E7FDF72BFF001B022802D955
:103C00000320BDE8F087286810F0005FF3D0384645
:103C1000BDE8F08728440258004402584044025846
:103C20002C4402584444025810B5FCF73FFC38B904
:103C30001848FDF7C4FC174800220121FCF748FE94
:103C4000144800224FF00071FCF742FE08B1FCF767
:103C50002AFC114C012208212046FDF7EBFE01222F
:103C600020461021FDF7E6FE0C4818240A231F22E7
:103C70000021047043700B4682704FF48022C170A3
:103C8000014640F20E30FCF72DFCBDE81040044820
:103C9000FFF7E0BBC4000024000402582000002409
:103CA000640100247047FDF7D9BE000070B59CB0D8
:103CB0004C216846FCF792FB202113A8FCF78EFBF1
:103CC0000220FDF79DFF2049002420480A6822F0C9
:103CD00001020A600968016841F44041016001681D
:103CE00001F440411B9101688904FCD5C8260220DB
:103CF00009900A210A90CDE90B06C303CDE90D0115
:103D000008250F9101226846CDE91054CDE9002322
:103D10001294FEF745FF08B172B6FEE740201A90F4
:103D20003F210301CDE916500322CDE9180313AB5F
:103D300013A883E816000221FEF7E6FC002801D054
:103D400072B6FEE71CB070BD2C040058184802582B
:103D50002C48F0B52C4A016841F4700101601068EC
:103D600000F00F00072804D2106820F00F00C01DDB
:103D7000106026490020254C10340B68244D43F078
:103D800001030B6020600B682B400B60136803F08D
:103D90000F03072B04D9136823F00F03DB1D1360F7
:103DA0001A4C1C4A18341C4B261D371D2060174C1A
:103DB0001A4D28343060261D3860371D23603B1DA6
:103DC00035601C1D3A60251D2E1D1860331D2260B4
:103DD0002860326018600A680C4B114C22F4802273
:103DE00060330A60186020686FF30F00B0F1005F65
:103DF00003D20C490120C1F8080143F2D2000A495C
:103E00000860F0BD88ED00E0002000520044025838
:103E10007FEDF6EA80020101000202020000FF01CC
:103E20000010005C00800051004000520148FFF784
:103E3000E1BB0000640100242DE9F0030268284B77
:103E4000DFF8A090DFF8A0C09842284D284C0AD097
:103E5000B0F1804F07D0484505D0604503D0A84257
:103E600001D0A04203D122F070024E683243214EAD
:103E7000214F9842DFF8848010D0B0F1804F0DD0F0
:103E800048450BD0604509D0A84207D0A04205D0D4
:103E9000B04203D0B84201D0404505D122F440726F
:103EA000D1F80CC04CEA0202D1F814C022F0800212
:103EB00042EA0C0202608A68C2620A688262984220
:103EC00007D0A04205D0B04203D0B84201D040454F
:103ED00001D10969016301214161BDE8F003704727
:103EE000000001400004004000080040000C0040B9
:103EF00000040140004001400044014000480140EE
:103F0000D0F808C02CF47F4C42EA0322114341EA66
:103F10000C0181607047826822F0700222F4401226
:103F2000114341F0070181607047036AD0F820C057
:103F30002CF0010CC0F820C0D0F818C02CF0F00C08
:103F40004CEA021223F00A031943826101627047AE
:103F5000036A23F010030362D0F818C0036A2CF43C
:103F6000704C4CEA023223F0A00343EA0111826153
:103F700001627047FEE70000254B002019688903A5
:103F800011D4BFF34F8FBFF36F8F22490860BFF387
:103F90004F8FBFF36F8F196841F400311960BFF381
:103FA0004F8FBFF36F8F1968C90322D4184970313E
:103FB0000860BFF34F8F081F43F6FF740068154D6C
:103FC0001035C0F34E31C0F3C90204EA4116104661
:103FD00046EA80772F60401EFAD2491EF5D2BFF321
:103FE0004F8F186840F480301860BFF34F8FBFF3D5
:103FF0006F8FFDF73BFDFFF759FEFFF733FCFFF72F
:10400000F9FBFFF7DFFBFFF795FCFFF70DFEFEE77F
:1040100014ED00E050EF00E04FF04070E1EE100AC8
:1040200070470000000001020304010203040607B8
:10403000080900000001020304050607080C10141B
:1040400018203040000000000000000000000000C8
:10405000000000000000000001000000020000005D
:104060000300000004000000000000000500000044
:10407000000000000000000000000000060000003A
:104080000000000000000000000000000700000029
:10409000B04000080000002420000000D402000806
:1040A000D040000820000024F00D0000F0020008BD
:1040B0000000FFFF00000000000000000090D0039F
:1040C0000090D0030100000010000000000000007C
:040000050800029954
:00000001FF
